{
    "_format": "hh-sol-artifact-1",
    "contractName": "CoffeePortal",
    "sourceName": "contracts/CoffeePortal.sol",
    "abi": [
        {
            "inputs": [],
            "stateMutability": "payable",
            "type": "constructor"
        },
        {
            "anonymous": false,
            "inputs": [
                {
                    "indexed": true,
                    "internalType": "address",
                    "name": "from",
                    "type": "address"
                },
                {
                    "indexed": false,
                    "internalType": "uint256",
                    "name": "timestamp",
                    "type": "uint256"
                },
                {
                    "indexed": false,
                    "internalType": "string",
                    "name": "message",
                    "type": "string"
                },
                {
                    "indexed": false,
                    "internalType": "string",
                    "name": "name",
                    "type": "string"
                }
            ],
            "name": "NewCoffee",
            "type": "event"
        },
        {
            "inputs": [
                {
                    "internalType": "string",
                    "name": "_message",
                    "type": "string"
                },
                {
                    "internalType": "string",
                    "name": "_name",
                    "type": "string"
                },
                {
                    "internalType": "uint256",
                    "name": "_payAmount",
                    "type": "uint256"
                }
            ],
            "name": "buyCoffee",
            "outputs": [],
            "stateMutability": "payable",
            "type": "function"
        },
        {
            "inputs": [],
            "name": "getAllCoffee",
            "outputs": [
                {
                    "components": [
                        {
                            "internalType": "address",
                            "name": "givers",
                            "type": "address"
                        },
                        {
                            "internalType": "string",
                            "name": "messages",
                            "type": "string"
                        },
                        {
                            "internalType": "string",
                            "name": "name",
                            "type": "string"
                        },
                        {
                            "internalType": "uint256",
                            "name": "timestamp",
                            "type": "uint256"
                        }
                    ],
                    "internalType": "struct CoffeePortal.Coffee[]",
                    "name": "",
                    "type": "tuple[]"
                }
            ],
            "stateMutability": "view",
            "type": "function"
        },
        {
            "inputs": [],
            "name": "getTotalCoffee",
            "outputs": [
                {
                    "internalType": "uint256",
                    "name": "",
                    "type": "uint256"
                }
            ],
            "stateMutability": "view",
            "type": "function"
        },
        {
            "inputs": [],
            "name": "owner",
            "outputs": [
                {
                    "internalType": "address payable",
                    "name": "",
                    "type": "address"
                }
            ],
            "stateMutability": "view",
            "type": "function"
        }
    ],
    "bytecode": "0x60806040526200004f6040518060400160405280601381526020017f596f2120536d61727420436f6e747261637421000000000000000000000000008152506200009660201b620005e41760201c565b33600160006101000a81548173ffffffffffffffffffffffffffffffffffffffff021916908373ffffffffffffffffffffffffffffffffffffffff16021790555062000220565b6200013681604051602401620000ad9190620001fc565b6040516020818303038152906040527f41304fac000000000000000000000000000000000000000000000000000000007bffffffffffffffffffffffffffffffffffffffffffffffffffffffff19166020820180517bffffffffffffffffffffffffffffffffffffffffffffffffffffffff83818316178352505050506200013960201b60201c565b50565b60008151905060006a636f6e736f6c652e6c6f679050602083016000808483855afa5050505050565b600081519050919050565b600082825260208201905092915050565b60005b838110156200019e57808201518184015260208101905062000181565b60008484015250505050565b6000601f19601f8301169050919050565b6000620001c88262000162565b620001d481856200016d565b9350620001e68185602086016200017e565b620001f181620001aa565b840191505092915050565b60006020820190508181036000830152620002188184620001bb565b905092915050565b61123180620002306000396000f3fe60806040526004361061003f5760003560e01c8063441315c5146100445780634839ee3f146100605780638da5cb5b1461008b578063d386beca146100b6575b600080fd5b61005e6004803603810190610059919061096e565b6100e1565b005b34801561006c57600080fd5b50610075610390565b6040516100829190610a08565b60405180910390f35b34801561009757600080fd5b506100a06103db565b6040516100ad9190610a64565b60405180910390f35b3480156100c257600080fd5b506100cb610401565b6040516100d89190610c5a565b60405180910390f35b600066038d7ea4c68000905080821115610130576040517f08c379a000000000000000000000000000000000000000000000000000000000815260040161012790610cd9565b60405180910390fd5b60016000808282546101429190610d28565b925050819055506101886040518060400160405280601a81526020017f257320686173206a7573742073656e74206120636f66666565210000000000008152503361067d565b600260405180608001604052803373ffffffffffffffffffffffffffffffffffffffff16815260200186815260200185815260200142815250908060018154018082558091505060019003906000526020600020906004020160009091909190915060008201518160000160006101000a81548173ffffffffffffffffffffffffffffffffffffffff021916908373ffffffffffffffffffffffffffffffffffffffff16021790555060208201518160010190816102469190610f68565b50604082015181600201908161025c9190610f68565b506060820151816003015550506000600160009054906101000a900473ffffffffffffffffffffffffffffffffffffffff1673ffffffffffffffffffffffffffffffffffffffff16836040516102b19061106b565b60006040518083038185875af1925050503d80600081146102ee576040519150601f19603f3d011682016040523d82523d6000602084013e6102f3565b606091505b5050905080610337576040517f08c379a000000000000000000000000000000000000000000000000000000000815260040161032e906110cc565b60405180910390fd5b3373ffffffffffffffffffffffffffffffffffffffff167f5d202edb9ac9aca913189e3c829f7fdbba23859e91379c70ecf7874fe39632a742878760405161038193929190611125565b60405180910390a25050505050565b60006103d36040518060400160405280602081526020017f7765206861766520256420746f74616c20636f66666565207265636965766564815250600054610719565b600054905090565b600160009054906101000a900473ffffffffffffffffffffffffffffffffffffffff1681565b60606002805480602002602001604051908101604052809291908181526020016000905b828210156105db57838290600052602060002090600402016040518060800160405290816000820160009054906101000a900473ffffffffffffffffffffffffffffffffffffffff1673ffffffffffffffffffffffffffffffffffffffff1673ffffffffffffffffffffffffffffffffffffffff1681526020016001820180546104ae90610d8b565b80601f01602080910402602001604051908101604052809291908181526020018280546104da90610d8b565b80156105275780601f106104fc57610100808354040283529160200191610527565b820191906000526020600020905b81548152906001019060200180831161050a57829003601f168201915b5050505050815260200160028201805461054090610d8b565b80601f016020809104026020016040519081016040528092919081815260200182805461056c90610d8b565b80156105b95780601f1061058e576101008083540402835291602001916105b9565b820191906000526020600020905b81548152906001019060200180831161059c57829003601f168201915b5050505050815260200160038201548152505081526020019060010190610425565b50505050905090565b61067a816040516024016105f8919061116a565b6040516020818303038152906040527f41304fac000000000000000000000000000000000000000000000000000000007bffffffffffffffffffffffffffffffffffffffffffffffffffffffff19166020820180517bffffffffffffffffffffffffffffffffffffffffffffffffffffffff83818316178352505050506107b5565b50565b610715828260405160240161069392919061119b565b6040516020818303038152906040527f319af333000000000000000000000000000000000000000000000000000000007bffffffffffffffffffffffffffffffffffffffffffffffffffffffff19166020820180517bffffffffffffffffffffffffffffffffffffffffffffffffffffffff83818316178352505050506107b5565b5050565b6107b1828260405160240161072f9291906111cb565b6040516020818303038152906040527fb60e72cc000000000000000000000000000000000000000000000000000000007bffffffffffffffffffffffffffffffffffffffffffffffffffffffff19166020820180517bffffffffffffffffffffffffffffffffffffffffffffffffffffffff83818316178352505050506107b5565b5050565b60008151905060006a636f6e736f6c652e6c6f679050602083016000808483855afa5050505050565b6000604051905090565b600080fd5b600080fd5b600080fd5b600080fd5b6000601f19601f8301169050919050565b7f4e487b7100000000000000000000000000000000000000000000000000000000600052604160045260246000fd5b610845826107fc565b810181811067ffffffffffffffff821117156108645761086361080d565b5b80604052505050565b60006108776107de565b9050610883828261083c565b919050565b600067ffffffffffffffff8211156108a3576108a261080d565b5b6108ac826107fc565b9050602081019050919050565b82818337600083830152505050565b60006108db6108d684610888565b61086d565b9050828152602081018484840111156108f7576108f66107f7565b5b6109028482856108b9565b509392505050565b600082601f83011261091f5761091e6107f2565b5b813561092f8482602086016108c8565b91505092915050565b6000819050919050565b61094b81610938565b811461095657600080fd5b50565b60008135905061096881610942565b92915050565b600080600060608486031215610987576109866107e8565b5b600084013567ffffffffffffffff8111156109a5576109a46107ed565b5b6109b18682870161090a565b935050602084013567ffffffffffffffff8111156109d2576109d16107ed565b5b6109de8682870161090a565b92505060406109ef86828701610959565b9150509250925092565b610a0281610938565b82525050565b6000602082019050610a1d60008301846109f9565b92915050565b600073ffffffffffffffffffffffffffffffffffffffff82169050919050565b6000610a4e82610a23565b9050919050565b610a5e81610a43565b82525050565b6000602082019050610a796000830184610a55565b92915050565b600081519050919050565b600082825260208201905092915050565b6000819050602082019050919050565b6000610ab682610a23565b9050919050565b610ac681610aab565b82525050565b600081519050919050565b600082825260208201905092915050565b60005b83811015610b06578082015181840152602081019050610aeb565b60008484015250505050565b6000610b1d82610acc565b610b278185610ad7565b9350610b37818560208601610ae8565b610b40816107fc565b840191505092915050565b610b5481610938565b82525050565b6000608083016000830151610b726000860182610abd565b5060208301518482036020860152610b8a8282610b12565b91505060408301518482036040860152610ba48282610b12565b9150506060830151610bb96060860182610b4b565b508091505092915050565b6000610bd08383610b5a565b905092915050565b6000602082019050919050565b6000610bf082610a7f565b610bfa8185610a8a565b935083602082028501610c0c85610a9b565b8060005b85811015610c485784840389528151610c298582610bc4565b9450610c3483610bd8565b925060208a01995050600181019050610c10565b50829750879550505050505092915050565b60006020820190508181036000830152610c748184610be5565b905092915050565b600082825260208201905092915050565b7f496e73756666696369656e742045746865722070726f76696465640000000000600082015250565b6000610cc3601b83610c7c565b9150610cce82610c8d565b602082019050919050565b60006020820190508181036000830152610cf281610cb6565b9050919050565b7f4e487b7100000000000000000000000000000000000000000000000000000000600052601160045260246000fd5b6000610d3382610938565b9150610d3e83610938565b9250828201905080821115610d5657610d55610cf9565b5b92915050565b7f4e487b7100000000000000000000000000000000000000000000000000000000600052602260045260246000fd5b60006002820490506001821680610da357607f821691505b602082108103610db657610db5610d5c565b5b50919050565b60008190508160005260206000209050919050565b60006020601f8301049050919050565b600082821b905092915050565b600060088302610e1e7fffffffffffffffffffffffffffffffffffffffffffffffffffffffffffffffff82610de1565b610e288683610de1565b95508019841693508086168417925050509392505050565b6000819050919050565b6000610e65610e60610e5b84610938565b610e40565b610938565b9050919050565b6000819050919050565b610e7f83610e4a565b610e93610e8b82610e6c565b848454610dee565b825550505050565b600090565b610ea8610e9b565b610eb3818484610e76565b505050565b5b81811015610ed757610ecc600082610ea0565b600181019050610eb9565b5050565b601f821115610f1c57610eed81610dbc565b610ef684610dd1565b81016020851015610f05578190505b610f19610f1185610dd1565b830182610eb8565b50505b505050565b600082821c905092915050565b6000610f3f60001984600802610f21565b1980831691505092915050565b6000610f588383610f2e565b9150826002028217905092915050565b610f7182610acc565b67ffffffffffffffff811115610f8a57610f8961080d565b5b610f948254610d8b565b610f9f828285610edb565b600060209050601f831160018114610fd25760008415610fc0578287015190505b610fca8582610f4c565b865550611032565b601f198416610fe086610dbc565b60005b8281101561100857848901518255600182019150602085019450602081019050610fe3565b868310156110255784890151611021601f891682610f2e565b8355505b6001600288020188555050505b505050505050565b600081905092915050565b50565b600061105560008361103a565b915061106082611045565b600082019050919050565b600061107682611048565b9150819050919050565b7f4661696c656420746f2073656e64206d6f6e6579000000000000000000000000600082015250565b60006110b6601483610c7c565b91506110c182611080565b602082019050919050565b600060208201905081810360008301526110e5816110a9565b9050919050565b60006110f782610acc565b6111018185610c7c565b9350611111818560208601610ae8565b61111a816107fc565b840191505092915050565b600060608201905061113a60008301866109f9565b818103602083015261114c81856110ec565b9050818103604083015261116081846110ec565b9050949350505050565b6000602082019050818103600083015261118481846110ec565b905092915050565b61119581610aab565b82525050565b600060408201905081810360008301526111b581856110ec565b90506111c4602083018461118c565b9392505050565b600060408201905081810360008301526111e581856110ec565b90506111f460208301846109f9565b939250505056fea26469706673582212200332247612638c0b5b7f32c26dbb7e0e133a1200de465d21d38dce3ae998b89a64736f6c63430008120033",
    "linkReferences": {},
    "deployedLinkReferences": {}
}